:100000000C942A000C943F000C943F000C943F0089
:100010000C943F000C943F000C943F000C943F0064
:100020000C943F000C943F000C943F000C943F0054
:100030000C943F000C943F000C943F000C943F0044
:100040000C943F000C943F000C943F000C943F0034
:100050000C943F0011241FBECFE5D8E0DEBFCDBF1A
:1000600010E0A0E6B0E0E6E6F5E002C005900D92F3
:10007000A836B107D9F70E94A6020C94B1020C94DD
:1000800000008830E8F4613069F44BB321E030E0DF
:10009000B90102C0660F771F8A95E2F7CB01842B66
:1000A0008BBB08954BB321E030E0B90102C0660F6D
:1000B000771F8A95E2F7CB01809584238BBB089547
:1000C00098EF980F9830F0F4613069F448B321E06C
:1000D00030E0B90102C0660F771F9A95E2F7CB01B5
:1000E000842B88BB089548B3885021E030E0B901E3
:1000F00002C0660F771F8A95E2F7CB0180958423B3
:1001000088BB089590EF980F9830F0F4613069F44F
:1001100045B321E030E0B90102C0660F771F9A9520
:10012000E2F7CB01842B85BB089545B3805121E0D4
:1001300030E0B90102C0660F771F8A95E2F7CB0164
:100140008095842385BB089598EE980F9830E8F445
:10015000613069F442B321E030E0B90102C0660FBA
:10016000771F9A95E2F7CB01842B82BB089542B3A7
:10017000885121E030E0B90102C0660F771F8A95EF
:10018000E2F7CB018095842382BB08958830E8F4A0
:10019000613069F44AB321E030E0B90102C0660F72
:1001A000771F8A95E2F7CB01842B8ABB08954AB367
:1001B00021E030E0B90102C0660F771F8A95E2F7AF
:1001C000CB01809584238ABB089598EF980F9830CF
:1001D000F0F4613069F447B321E030E0B90102C0C6
:1001E000660F771F9A95E2F7CB01842B87BB0895A2
:1001F00047B3885021E030E0B90102C0660F771F95
:100200008A95E2F7CB018095842387BB089590EF10
:10021000980F9830F0F4613069F444B321E030E095
:10022000B90102C0660F771F9A95E2F7CB01842BC4
:1002300084BB089544B3805121E030E0B90102C08D
:10024000660F771F8A95E2F7CB018095842384BBE4
:10025000089598EE980F9830E8F4613069F441B34E
:1002600021E030E0B90102C0660F771F9A95E2F7EE
:10027000CB01842B81BB089541B3885121E030E04C
:10028000B90102C0660F771F8A95E2F7CB0180950E
:10029000842381BB0895CF93C82F60E081E00E9442
:1002A000410060E082E00E9441008FE99FE00197F9
:1002B000F1F700C0000061E083E00E9441008FE997
:1002C0009FE00197F1F700C00000C4FB662760F9CA
:1002D00084E00E944100C5FB662760F985E00E942A
:1002E0004100C6FB662760F986E00E9441006C2F42
:1002F000661F6627661F87E00E9441008FE99FE026
:100300000197F1F700C0000060E083E00E94410027
:100310008FE99FE00197F1F700C0000061E083E002
:100320000E9441008FE99FE00197F1F700C00000B3
:100330006C2F617084E00E944100C1FB662760F968
:1003400085E00E944100C2FB662760F986E00E94BA
:100350004100C3FB662760F987E00E9441008FE9F6
:100360009FE00197F1F700C0000060E083E00E9489
:1003700041008FE99FE00197F1F700C00000CF91A5
:10038000089561E081E00E94C60061E082E00E9481
:10039000C60061E083E00E94C60061E084E00E9444
:1003A000C60061E085E00E94C60061E086E00E9430
:1003B000C60061E087E00E94C60082E00E944B0117
:1003C00088E20E944B018CE00E944B0181E00E9478
:1003D0004B010895CF93C82F61E081E00E94410056
:1003E00060E082E00E9441008FE99FE00197F1F711
:1003F00000C0000061E083E00E9441008FE99FE0BF
:100400000197F1F700C00000C4FB662760F984E0A3
:100410000E944100C5FB662760F985E00E9441000B
:10042000C6FB662760F986E00E9441006C2F661FBC
:100430006627661F87E00E9441008FE99FE00197D1
:10044000F1F700C0000060E083E00E9441008FE906
:100450009FE00197F1F700C0000061E083E00E9497
:1004600041008FE99FE00197F1F700C000006C2F79
:10047000617084E00E944100C1FB662760F985E05D
:100480000E944100C2FB662760F986E00E9441009D
:10049000C3FB662760F987E00E9441008FE99FE077
:1004A0000197F1F700C0000060E083E00E94410086
:1004B0008FE99FE00197F1F700C00000CF91089508
:1004C000CF93DF93D62F81110DC080E80E944B019E
:1004D000DD2319F1C0E084E10E944B01CF5FDC1302
:1004E000FACF1BC0813069F480EC0E944B01DD2300
:1004F000A1F0C0E084E10E944B01CF5FDC13FACF92
:100500000CC080E80E944B01DD2339F0C0E084E19B
:100510000E944B01CF5FDC13FACFDF91CF9108959A
:100520000F931F93CF93FC018081882359F08F0193
:10053000C0E00E94EA01CF5FF801EC0FF11D80815D
:100540008111F7CFCF911F910F9108950E94C101A2
:1005500063E081E00E94600280E690E00E949002E9
:06056000FFCFF894FFCF6D
:0805660059617373696E000016
:00000001FF
